:040000000DEF00F010
:0400080069EF03F0A9
:10001800FF00DEEF03F0000E166E80AE16EF00F064
:1000280018EF00F0BDEF00F082A61DEF00F01FEF03
:1000380000F047EF00F0600053F0D9FF600057F080
:10004800DAFF020EDF6E6F0010FE01F06F0004FE93
:1000580002F06F0008FE03F083506BEC01F020EE15
:1000680001F01450D9261550DA22600007F0DEFF9F
:1000780060000BF0DEFF60000FF0DEFF600013F0A1
:10008800DEFF67EF00F0600053F0D9FF600057F023
:10009800DAFF010EDF6E6F0008FE01F08150FFEC01
:1000A80002F020EE01F01450D9261550DA22600033
:1000B80007F0DEFF60000BF0DEFF60000FF0DEFFF0
:1000C800600013F0DEFF20EE05F01450D92615501D
:1000D800DA226F0017FEDFFF20EE06F01450D92653
:1000E8001550DA226F001BFEDFFF20EE07F01450D8
:1000F800D9261550DA226F001FFEDFFF20EE08F028
:100108001450D9261550DA226F0023FEDFFF20EEA7
:1001180009F01450D9261550DA226F0027FEDFFFA8
:1001280020EE0AF01450D9261550DA226F002BFE63
:10013800DFFF20EE0BF01450D9261550DA226F009D
:100148002FFEDFFF20EE0CF01450D9261550DA22CE
:100158006F0033FEDFFF20EE0DF01450D926155046
:10016800DA226F0037FEDFFF809E010E166E69EF00
:1001780001F03701F0AFC3EF00F0C5EF00F069EF11
:1001880001F0F2A7CAEF00F0CCEF00F0F4EF00F0B6
:10019800600053F0D9FF600057F0DAFF020EDF6EFF
:1001A8006D00D0FF01F06D00C4FF02F06D00C8FFC4
:1001B80003F0F3516BEC01F020EE01F01450D92656
:1001C8001550DA22600007F0DEFF60000BF0DEFF5A
:1001D80060000FF0DEFF600013F0DEFF14EF01F0A7
:1001E800600053F0D9FF600057F0DAFF010EDF6EB0
:1001F8006D00C8FF01F0F151FFEC02F020EE01F0B4
:100208001450D9261550DA22600007F0DEFF60008E
:100218000BF0DEFF60000FF0DEFF600013F0DEFF82
:1002280020EE05F01450D9261550DA226D00D7FFBC
:10023800DFFF20EE06F01450D9261550DA226D00A3
:10024800DBFFDFFF20EE07F01450D9261550DA2225
:100258006D00DFFFDFFF20EE08F01450D92615509F
:10026800DA226D00E3FFDFFF20EE09F01450D926F3
:100278001550DA226D00E7FFDFFF20EE0AF0145078
:10028800D9261550DA226D00EBFFDFFF20EE0BF0C8
:100298001450D9261550DA226D00EFFFDFFF20EE4B
:1002A8000CF01450D9261550DA226D00F3FFDFFF49
:1002B80020EE0DF01450D9261550DA226D00F7FF04
:1002C800DFFF3701F09FB9EF00F016501200096EFA
:1002D800000E106E000E116E000E126E000E136EE0
:1002E8000350030B0E6E0338E842070B0F6E0250E3
:1002F800056E066AD89005360636D8900536063655
:10030800D8900536063605C010F006C011F0000E6C
:1003180011BEFF0E126E136E0F501024106E000ED9
:100328001120116E000E1220126E000E1320136E93
:1003380010C005F011C006F012C007F013C008F095
:10034800020ED8900536063607360836E82EA5EF91
:1003580001F005C010F006C011F007C012F008C087
:1003680013F00E501024106E000E1120116E000EA6
:100378001220126E000E1320136E10C006F011C06A
:1003880007F012C008F0056A05C010F006C011F0A9
:1003980007C012F008C013F009501024106E000EA8
:1003A8001120116E000E1220126E000E1320136E13
:1003B80010C006F011C007F012C008F0056A05C0A9
:1003C80010F006C011F007C012F008C013F0015079
:1003D8001024106E000E1120116E000E1220126EE5
:1003E800000E1320136E10C00AF011C00BF012C0DB
:1003F8000CF013C00DF00AC001F00BC002F00CC0E5
:1004080003F00DC004F01200FFEC03F0440E016E7F
:10041800080E026E18EC04F0D28E000E176E000E55
:10042800186E190E146E000E156E0FEC00F0000910
:10043800D8B421EF02F023EF02F078EF02F0660E55
:100448001A1809E1070E1B181C101D10D8A42FEF4D
:1004580002F031EF02F05AEF02F02DC02CF023C069
:100468002DF0020E2C18D8A43CEF02F03EEF02F05B
:100478004AEF02F0030E2D18D8A445EF02F047EF1B
:1004880002F04AEF02F0BC8626EC04F02450D8B4FF
:1004980050EF02F052EF02F056EF02F0010E176E25
:1004A80078EF02F0000E176E78EF02F0870E1A1838
:1004B80009E1030E1B181C101D10D8A466EF02F0EA
:1004C80068EF02F078EF02F01F50800A880FD8B06A
:1004D80070EF02F072EF02F076EF02F0010E186E84
:1004E80078EF02F0000E186E1750D8A47EEF02F0D5
:1004F80080EF02F088EF02F01850D8B486EF02F0CF
:1005080088EF02F08BEF02F0BA8C15EF02F0BA9C7C
:1005180015EF02F00DEF00F0800E8F6E8E50E00B9D
:10052800800AD8A49AEF02F09CEF02F092EF02F052
:10053800000E916E000E3701006F000EBA6F000EAC
:10054800BB6F000EB86F000EB96F000EBE6F000EC5
:10055800BF6F000EBC6F000EBD6F000EA26F000EC5
:10056800A36F000EA06F000EA16F000EA66F000E05
:10057800A76F000EA46F000EA56F000EAA6F000EE5
:10058800AB6F000EA86F000EA96F000EAE6F000EC5
:10059800AF6F000EAC6F000EAD6F000EB26F000EA5
:1005A800B36F000EB06F000EB16F000EB66F000E85
:1005B800B76F000EB46F000EB56F1F0E036F980E65
:1005C800046F010E056F5A0E016E080E026E1DECC7
:1005D80004F03901A59D958D000E8F6E6F0038FED1
:1005E80003F0E00E0316D8A4FCEF02F0FEEF02F0D1
:1005F800F2EF02F01200076E0750056E066AD890F7
:1006080005360636D89005360636D89005360636AD
:1006180005C00CF006C00DF0000E0DBEFF0E0E6EEC
:100628000F6E01C005F0050E066ED8900532062E35
:1006380019EF03F005500C240C6E000E0D200D6E02
:10064800000E0E200E6E000E0F200F6E0CC008F06C
:100658000DC009F00EC00AF00FC00BF008C001F081
:1006680009C002F00AC003F00BC004F01200000E2B
:10067800BA6E000EBB6E000EBC6EBF0EC26EEF0EE1
:10068800C36EF70EC46EF70E3A01606FE70E506F37
:10069800BF0E406F000E816F000E516F000E416F4C
:1006A800000E616F000E426F000E526F000E626FF7
:1006B800436953696369446954696469080E846FBE
:1006C8000B0EED6F330E0C6F1200390193AF6FEF05
:1006D80003F071EF03F07CEF03F0A3AF76EF03F0C4
:1006E80078EF03F07CEF03F0A4EC03F08CEF03F059
:1006F80095AD81EF03F083EF03F08CEF03F0A5AD28
:1007080088EF03F08AEF03F08CEF03F0EFEC03F0CF
:1007180011002E502F10D8B494EF03F096EF03F089
:10072800A3EF03F002D8A3EF03F00500FA6E2E50F2
:10073800FD6E2F50FE6EF850FF6EFA501200120038
:100748003901A39F274A282A285009E1320E275C3D
:10075800D8A0B1EF03F0B3EF03F0B9EF03F08DECDD
:1007680003F0000E286E000E276E1200490EB96EB7
:100778007C0EB76E000EB66E3901A39F938F580E8C
:10078800016E080E026E18EC04F0890EB86E1200A5
:10079800000E3901C06F000EC16F000EC26F000E4F
:1007A800C36F000EC46F000EC56F000EC66F000E3B
:1007B800C76F120000EE27F0070EEE6AE806FDE1AB
:1007C800080ED56E000ED66E000ED76E000EF86EAF
:1007D800000108EF02F002D8FCEF03F00500FA6E02
:1007E8002950FD6E2A50FE6EF850FF6EFA50120026
:1007F8003901A59D120028EC04F0CCEC03F03BEC89
:1008080003F00CEC04F0BAEC03F090EC02F01200E8
:10081800600E3901D96F000EDB6F000EDD6F080E18
:10082800DF6F000EDE6F120001C02EF002C02FF045
:10083800120001C029F002C02AF012002AEC04F0CC
:10084800BC961200B88E1200D29A1200B89E1200FE
:040858001200120078
:020000040020DA
:10000000FF0FFF0FFF0FFF0FFF0FFF0FFF0FFF0F80
:020000040030CA
:0A0000008CFFF7FF9FFFFFFFFFFFDB
:00000001FF
